{
  "contractName": "UserRole",
  "abi": [
    {
      "anonymous": false,
      "inputs": [
        {
          "indexed": true,
          "internalType": "address[]",
          "name": "accounts",
          "type": "address[]"
        },
        {
          "indexed": true,
          "internalType": "uint256[]",
          "name": "amounts",
          "type": "uint256[]"
        }
      ],
      "name": "AddManyUser",
      "type": "event"
    },
    {
      "anonymous": false,
      "inputs": [
        {
          "indexed": true,
          "internalType": "address",
          "name": "account",
          "type": "address"
        },
        {
          "indexed": true,
          "internalType": "uint256",
          "name": "amount",
          "type": "uint256"
        }
      ],
      "name": "AddUser",
      "type": "event"
    },
    {
      "anonymous": false,
      "inputs": [
        {
          "indexed": true,
          "internalType": "address",
          "name": "previousOwner",
          "type": "address"
        },
        {
          "indexed": true,
          "internalType": "address",
          "name": "newOwner",
          "type": "address"
        }
      ],
      "name": "OwnershipTransferred",
      "type": "event"
    },
    {
      "anonymous": false,
      "inputs": [
        {
          "indexed": true,
          "internalType": "address",
          "name": "account",
          "type": "address"
        }
      ],
      "name": "RemoveUser",
      "type": "event"
    },
    {
      "inputs": [],
      "name": "owner",
      "outputs": [
        {
          "internalType": "address",
          "name": "",
          "type": "address"
        }
      ],
      "stateMutability": "view",
      "type": "function"
    },
    {
      "inputs": [],
      "name": "renounceOwnership",
      "outputs": [],
      "stateMutability": "nonpayable",
      "type": "function"
    },
    {
      "inputs": [
        {
          "internalType": "address",
          "name": "newOwner",
          "type": "address"
        }
      ],
      "name": "transferOwnership",
      "outputs": [],
      "stateMutability": "nonpayable",
      "type": "function"
    },
    {
      "inputs": [
        {
          "internalType": "address",
          "name": "account",
          "type": "address"
        },
        {
          "internalType": "uint256",
          "name": "amount",
          "type": "uint256"
        }
      ],
      "name": "addUser",
      "outputs": [
        {
          "internalType": "bool",
          "name": "ok",
          "type": "bool"
        }
      ],
      "stateMutability": "nonpayable",
      "type": "function"
    },
    {
      "inputs": [
        {
          "internalType": "address",
          "name": "account",
          "type": "address"
        }
      ],
      "name": "isUser",
      "outputs": [
        {
          "internalType": "bool",
          "name": "",
          "type": "bool"
        }
      ],
      "stateMutability": "view",
      "type": "function"
    },
    {
      "inputs": [
        {
          "internalType": "address",
          "name": "account",
          "type": "address"
        }
      ],
      "name": "checkBalance",
      "outputs": [
        {
          "internalType": "uint256",
          "name": "",
          "type": "uint256"
        }
      ],
      "stateMutability": "view",
      "type": "function"
    },
    {
      "inputs": [
        {
          "internalType": "address[]",
          "name": "accounts",
          "type": "address[]"
        },
        {
          "internalType": "uint256[]",
          "name": "amounts",
          "type": "uint256[]"
        }
      ],
      "name": "addManyUser",
      "outputs": [
        {
          "internalType": "bool",
          "name": "ok",
          "type": "bool"
        }
      ],
      "stateMutability": "nonpayable",
      "type": "function"
    },
    {
      "inputs": [
        {
          "internalType": "address",
          "name": "account",
          "type": "address"
        }
      ],
      "name": "removeUser",
      "outputs": [
        {
          "internalType": "bool",
          "name": "ok",
          "type": "bool"
        }
      ],
      "stateMutability": "nonpayable",
      "type": "function"
    }
  ],
  "bytecode": "0x608060405234801561001057600080fd5b5061002d61002261003260201b60201c565b61003a60201b60201c565b6100fe565b600033905090565b60008060009054906101000a900473ffffffffffffffffffffffffffffffffffffffff169050816000806101000a81548173ffffffffffffffffffffffffffffffffffffffff021916908373ffffffffffffffffffffffffffffffffffffffff1602179055508173ffffffffffffffffffffffffffffffffffffffff168173ffffffffffffffffffffffffffffffffffffffff167f8be0079c531659141344cd1fd0a4f28419497f9722a3daafe3b4186f6b6457e060405160405180910390a35050565b6111f58061010d6000396000f3fe608060405234801561001057600080fd5b50600436106100885760003560e01c8063985751881161005b57806398575188146101155780639d577a6114610145578063d301719314610175578063f2fde38b146101a557610088565b80634209fff11461008d5780635f515226146100bd578063715018a6146100ed5780638da5cb5b146100f7575b600080fd5b6100a760048036038101906100a29190610aaa565b6101c1565b6040516100b49190610af2565b60405180910390f35b6100d760048036038101906100d29190610aaa565b610296565b6040516100e49190610b26565b60405180910390f35b6100f561035e565b005b6100ff6103e6565b60405161010c9190610b50565b60405180910390f35b61012f600480360381019061012a9190610aaa565b61040f565b60405161013c9190610af2565b60405180910390f35b61015f600480360381019061015a9190610db3565b61057c565b60405161016c9190610af2565b60405180910390f35b61018f600480360381019061018a9190610e2b565b610707565b60405161019c9190610af2565b60405180910390f35b6101bf60048036038101906101ba9190610aaa565b610874565b005b60006101cb61096c565b73ffffffffffffffffffffffffffffffffffffffff166101e96103e6565b73ffffffffffffffffffffffffffffffffffffffff161461023f576040517f08c379a000000000000000000000000000000000000000000000000000000000815260040161023690610ec8565b60405180910390fd5b600160008373ffffffffffffffffffffffffffffffffffffffff1673ffffffffffffffffffffffffffffffffffffffff16815260200190815260200160002060000160009054906101000a900460ff169050919050565b60006102a061096c565b73ffffffffffffffffffffffffffffffffffffffff166102be6103e6565b73ffffffffffffffffffffffffffffffffffffffff1614610314576040517f08c379a000000000000000000000000000000000000000000000000000000000815260040161030b90610ec8565b60405180910390fd5b600160008373ffffffffffffffffffffffffffffffffffffffff1673ffffffffffffffffffffffffffffffffffffffff168152602001908152602001600020600101549050919050565b61036661096c565b73ffffffffffffffffffffffffffffffffffffffff166103846103e6565b73ffffffffffffffffffffffffffffffffffffffff16146103da576040517f08c379a00000000000000000000000000000000000000000000000000000000081526004016103d190610ec8565b60405180910390fd5b6103e46000610974565b565b60008060009054906101000a900473ffffffffffffffffffffffffffffffffffffffff16905090565b600061041961096c565b73ffffffffffffffffffffffffffffffffffffffff166104376103e6565b73ffffffffffffffffffffffffffffffffffffffff161461048d576040517f08c379a000000000000000000000000000000000000000000000000000000000815260040161048490610ec8565b60405180910390fd5b6000600160008473ffffffffffffffffffffffffffffffffffffffff1673ffffffffffffffffffffffffffffffffffffffff16815260200190815260200160002060000160006101000a81548160ff0219169083151502179055506000600160008473ffffffffffffffffffffffffffffffffffffffff1673ffffffffffffffffffffffffffffffffffffffff168152602001908152602001600020600101819055508173ffffffffffffffffffffffffffffffffffffffff167f0ad8e54ac59bf2d8a7a1474c1af503b593553cf4fcaaffdef04ab5249f89762b60405160405180910390a260019050919050565b600061058661096c565b73ffffffffffffffffffffffffffffffffffffffff166105a46103e6565b73ffffffffffffffffffffffffffffffffffffffff16146105fa576040517f08c379a00000000000000000000000000000000000000000000000000000000081526004016105f190610ec8565b60405180910390fd5b815183511461060857600080fd5b600080600090505b84518110156106a35784818151811061062c5761062b610ee8565b5b6020026020010151915060018060008473ffffffffffffffffffffffffffffffffffffffff1673ffffffffffffffffffffffffffffffffffffffff16815260200190815260200160002060000160006101000a81548160ff021916908315150217905550808061069b90610f46565b915050610610565b50826040516106b29190611047565b6040518091039020846040516106c89190611116565b60405180910390207f95fd5e51587b9bcd55cbd5a53bf5bcc55def6d020a60b1c0484ce0d2e08805fe60405160405180910390a3600191505092915050565b600061071161096c565b73ffffffffffffffffffffffffffffffffffffffff1661072f6103e6565b73ffffffffffffffffffffffffffffffffffffffff1614610785576040517f08c379a000000000000000000000000000000000000000000000000000000000815260040161077c90610ec8565b60405180910390fd5b60018060008573ffffffffffffffffffffffffffffffffffffffff1673ffffffffffffffffffffffffffffffffffffffff16815260200190815260200160002060000160006101000a81548160ff02191690831515021790555081600160008573ffffffffffffffffffffffffffffffffffffffff1673ffffffffffffffffffffffffffffffffffffffff16815260200190815260200160002060010181905550818373ffffffffffffffffffffffffffffffffffffffff167f6932ac5f42401e77c40344f612fa5558d62470f6a92606e938a4743c566e6ce860405160405180910390a36001905092915050565b61087c61096c565b73ffffffffffffffffffffffffffffffffffffffff1661089a6103e6565b73ffffffffffffffffffffffffffffffffffffffff16146108f0576040517f08c379a00000000000000000000000000000000000000000000000000000000081526004016108e790610ec8565b60405180910390fd5b600073ffffffffffffffffffffffffffffffffffffffff168173ffffffffffffffffffffffffffffffffffffffff161415610960576040517f08c379a00000000000000000000000000000000000000000000000000000000081526004016109579061119f565b60405180910390fd5b61096981610974565b50565b600033905090565b60008060009054906101000a900473ffffffffffffffffffffffffffffffffffffffff169050816000806101000a81548173ffffffffffffffffffffffffffffffffffffffff021916908373ffffffffffffffffffffffffffffffffffffffff1602179055508173ffffffffffffffffffffffffffffffffffffffff168173ffffffffffffffffffffffffffffffffffffffff167f8be0079c531659141344cd1fd0a4f28419497f9722a3daafe3b4186f6b6457e060405160405180910390a35050565b6000604051905090565b600080fd5b600080fd5b600073ffffffffffffffffffffffffffffffffffffffff82169050919050565b6000610a7782610a4c565b9050919050565b610a8781610a6c565b8114610a9257600080fd5b50565b600081359050610aa481610a7e565b92915050565b600060208284031215610ac057610abf610a42565b5b6000610ace84828501610a95565b91505092915050565b60008115159050919050565b610aec81610ad7565b82525050565b6000602082019050610b076000830184610ae3565b92915050565b6000819050919050565b610b2081610b0d565b82525050565b6000602082019050610b3b6000830184610b17565b92915050565b610b4a81610a6c565b82525050565b6000602082019050610b656000830184610b41565b92915050565b600080fd5b6000601f19601f8301169050919050565b7f4e487b7100000000000000000000000000000000000000000000000000000000600052604160045260246000fd5b610bb982610b70565b810181811067ffffffffffffffff82111715610bd857610bd7610b81565b5b80604052505050565b6000610beb610a38565b9050610bf78282610bb0565b919050565b600067ffffffffffffffff821115610c1757610c16610b81565b5b602082029050602081019050919050565b600080fd5b6000610c40610c3b84610bfc565b610be1565b90508083825260208201905060208402830185811115610c6357610c62610c28565b5b835b81811015610c8c5780610c788882610a95565b845260208401935050602081019050610c65565b5050509392505050565b600082601f830112610cab57610caa610b6b565b5b8135610cbb848260208601610c2d565b91505092915050565b600067ffffffffffffffff821115610cdf57610cde610b81565b5b602082029050602081019050919050565b610cf981610b0d565b8114610d0457600080fd5b50565b600081359050610d1681610cf0565b92915050565b6000610d2f610d2a84610cc4565b610be1565b90508083825260208201905060208402830185811115610d5257610d51610c28565b5b835b81811015610d7b5780610d678882610d07565b845260208401935050602081019050610d54565b5050509392505050565b600082601f830112610d9a57610d99610b6b565b5b8135610daa848260208601610d1c565b91505092915050565b60008060408385031215610dca57610dc9610a42565b5b600083013567ffffffffffffffff811115610de857610de7610a47565b5b610df485828601610c96565b925050602083013567ffffffffffffffff811115610e1557610e14610a47565b5b610e2185828601610d85565b9150509250929050565b60008060408385031215610e4257610e41610a42565b5b6000610e5085828601610a95565b9250506020610e6185828601610d07565b9150509250929050565b600082825260208201905092915050565b7f4f776e61626c653a2063616c6c6572206973206e6f7420746865206f776e6572600082015250565b6000610eb2602083610e6b565b9150610ebd82610e7c565b602082019050919050565b60006020820190508181036000830152610ee181610ea5565b9050919050565b7f4e487b7100000000000000000000000000000000000000000000000000000000600052603260045260246000fd5b7f4e487b7100000000000000000000000000000000000000000000000000000000600052601160045260246000fd5b6000610f5182610b0d565b91507fffffffffffffffffffffffffffffffffffffffffffffffffffffffffffffffff821415610f8457610f83610f17565b5b600182019050919050565b600081519050919050565b600081905092915050565b6000819050602082019050919050565b610fbe81610b0d565b82525050565b6000610fd08383610fb5565b60208301905092915050565b6000602082019050919050565b6000610ff482610f8f565b610ffe8185610f9a565b935061100983610fa5565b8060005b8381101561103a5781516110218882610fc4565b975061102c83610fdc565b92505060018101905061100d565b5085935050505092915050565b60006110538284610fe9565b915081905092915050565b600081519050919050565b600081905092915050565b6000819050602082019050919050565b61108d81610a6c565b82525050565b600061109f8383611084565b60208301905092915050565b6000602082019050919050565b60006110c38261105e565b6110cd8185611069565b93506110d883611074565b8060005b838110156111095781516110f08882611093565b97506110fb836110ab565b9250506001810190506110dc565b5085935050505092915050565b600061112282846110b8565b915081905092915050565b7f4f776e61626c653a206e6577206f776e657220697320746865207a65726f206160008201527f6464726573730000000000000000000000000000000000000000000000000000602082015250565b6000611189602683610e6b565b91506111948261112d565b604082019050919050565b600060208201905081810360008301526111b88161117c565b905091905056fea26469706673582212202da7b856ed00903a0a83910b01b553668f8780f0c05f0a99a173aac908c6da0564736f6c63430008090033",
  "immutableReferences": {},
  "source": "pragma solidity ^0.8.0;\r\nimport \"@openzeppelin/contracts/access/Ownable.sol\";\r\n\r\n// compile success??\r\n\r\ncontract UserRole is Ownable {\r\n    struct User {\r\n        bool isUser;\r\n        uint256 amount;\r\n    }\r\n    mapping(address => User) private _users;\r\n\r\n    event AddUser(address indexed account, uint256 indexed amount);\r\n    event AddManyUser(address[] indexed accounts, uint256[] indexed amounts);\r\n    event RemoveUser(address indexed account);\r\n\r\n    function addUser(address account, uint256 amount)\r\n        public\r\n        onlyOwner\r\n        returns (bool ok)\r\n    {\r\n        _users[account].isUser = true;\r\n        _users[account].amount = amount;\r\n        emit AddUser(account, amount);\r\n        return true;\r\n    }\r\n\r\n    function isUser(address account) public view onlyOwner returns (bool) {\r\n        return _users[account].isUser;\r\n    }\r\n\r\n    function checkBalance(address account)\r\n        public\r\n        view\r\n        onlyOwner\r\n        returns (uint256)\r\n    {\r\n        return _users[account].amount;\r\n    }\r\n\r\n    function addManyUser(address[] memory accounts, uint256[] memory amounts)\r\n        public\r\n        onlyOwner\r\n        returns (bool ok)\r\n    {\r\n        require(accounts.length == amounts.length);\r\n\r\n        address account;\r\n        for (uint256 index = 0; index < accounts.length; index++) {\r\n            account = accounts[index];\r\n\r\n            _users[account].isUser = true;\r\n            //_users[account].amount = amounts[index];\r\n        }\r\n        emit AddManyUser(accounts, amounts);\r\n        return true;\r\n    }\r\n\r\n    function removeUser(address account) public onlyOwner returns (bool ok) {\r\n        //require(); /* trc ngy bt u vesting contract */\r\n\r\n        _users[account].isUser = false;\r\n        _users[account].amount = 0;\r\n        emit RemoveUser(account);\r\n        return true;\r\n    }\r\n}\r\n",
  "sourcePath": "C:\\Users\\huyvi\\OneDrive\\My tnh\\Blockchain\\vesting_team\\vesting-tts\\vesting-tts\\contracts\\UserRole.sol",
  "compiler": {
    "name": "solc",
    "version": "0.8.9+commit.e5eed63a.Emscripten.clang"
  },
  "schemaVersion": "3.4.6",
  "updatedAt": "2022-03-18T10:32:25.917Z",
  "devdoc": {
    "kind": "dev",
    "methods": {
      "owner()": {
        "details": "Returns the address of the current owner."
      },
      "renounceOwnership()": {
        "details": "Leaves the contract without owner. It will not be possible to call `onlyOwner` functions anymore. Can only be called by the current owner. NOTE: Renouncing ownership will leave the contract without an owner, thereby removing any functionality that is only available to the owner."
      },
      "transferOwnership(address)": {
        "details": "Transfers ownership of the contract to a new account (`newOwner`). Can only be called by the current owner."
      }
    },
    "version": 1
  },
  "userdoc": {
    "kind": "user",
    "methods": {},
    "version": 1
  }
}