{
  "contractName": "Vesting",
  "abi": [
    {
      "inputs": [
        {
          "internalType": "address",
          "name": "token",
          "type": "address"
        }
      ],
      "stateMutability": "nonpayable",
      "type": "constructor"
    },
    {
      "anonymous": false,
      "inputs": [
        {
          "indexed": true,
          "internalType": "address[]",
          "name": "accounts",
          "type": "address[]"
        },
        {
          "indexed": true,
          "internalType": "uint256[]",
          "name": "amounts",
          "type": "uint256[]"
        }
      ],
      "name": "AddManyUser",
      "type": "event"
    },
    {
      "anonymous": false,
      "inputs": [
        {
          "indexed": true,
          "internalType": "address",
          "name": "account",
          "type": "address"
        },
        {
          "indexed": true,
          "internalType": "uint256",
          "name": "amount",
          "type": "uint256"
        }
      ],
      "name": "AddUser",
      "type": "event"
    },
    {
      "anonymous": false,
      "inputs": [
        {
          "indexed": true,
          "internalType": "address",
          "name": "previousOwner",
          "type": "address"
        },
        {
          "indexed": true,
          "internalType": "address",
          "name": "newOwner",
          "type": "address"
        }
      ],
      "name": "OwnershipTransferred",
      "type": "event"
    },
    {
      "anonymous": false,
      "inputs": [
        {
          "indexed": true,
          "internalType": "address",
          "name": "account",
          "type": "address"
        }
      ],
      "name": "RemoveUser",
      "type": "event"
    },
    {
      "anonymous": false,
      "inputs": [
        {
          "indexed": true,
          "internalType": "uint32",
          "name": "startDate",
          "type": "uint32"
        },
        {
          "indexed": true,
          "internalType": "uint32",
          "name": "cliffPeriod",
          "type": "uint32"
        },
        {
          "indexed": true,
          "internalType": "uint32",
          "name": "interval",
          "type": "uint32"
        },
        {
          "indexed": false,
          "internalType": "uint32",
          "name": "milestones",
          "type": "uint32"
        }
      ],
      "name": "SetVestingSchedule",
      "type": "event"
    },
    {
      "anonymous": false,
      "inputs": [],
      "name": "WithdrawToken",
      "type": "event"
    },
    {
      "inputs": [],
      "name": "owner",
      "outputs": [
        {
          "internalType": "address",
          "name": "",
          "type": "address"
        }
      ],
      "stateMutability": "view",
      "type": "function"
    },
    {
      "inputs": [],
      "name": "renounceOwnership",
      "outputs": [],
      "stateMutability": "nonpayable",
      "type": "function"
    },
    {
      "inputs": [
        {
          "internalType": "address",
          "name": "newOwner",
          "type": "address"
        }
      ],
      "name": "transferOwnership",
      "outputs": [],
      "stateMutability": "nonpayable",
      "type": "function"
    },
    {
      "inputs": [
        {
          "internalType": "uint32",
          "name": "startDate",
          "type": "uint32"
        },
        {
          "internalType": "uint32",
          "name": "cliffPeriod",
          "type": "uint32"
        },
        {
          "internalType": "uint32",
          "name": "interval",
          "type": "uint32"
        },
        {
          "internalType": "uint32",
          "name": "milestones",
          "type": "uint32"
        }
      ],
      "name": "setVestingSchedule",
      "outputs": [
        {
          "internalType": "bool",
          "name": "ok",
          "type": "bool"
        }
      ],
      "stateMutability": "nonpayable",
      "type": "function"
    },
    {
      "inputs": [],
      "name": "withdrawToken",
      "outputs": [
        {
          "internalType": "bool",
          "name": "ok",
          "type": "bool"
        }
      ],
      "stateMutability": "nonpayable",
      "type": "function"
    },
    {
      "inputs": [
        {
          "internalType": "address",
          "name": "account",
          "type": "address"
        }
      ],
      "name": "vestingOf",
      "outputs": [
        {
          "internalType": "uint256",
          "name": "claim",
          "type": "uint256"
        },
        {
          "internalType": "uint256",
          "name": "remain",
          "type": "uint256"
        }
      ],
      "stateMutability": "view",
      "type": "function"
    },
    {
      "inputs": [
        {
          "internalType": "address",
          "name": "account",
          "type": "address"
        },
        {
          "internalType": "uint256",
          "name": "amount",
          "type": "uint256"
        }
      ],
      "name": "addUser",
      "outputs": [
        {
          "internalType": "bool",
          "name": "ok",
          "type": "bool"
        }
      ],
      "stateMutability": "nonpayable",
      "type": "function"
    },
    {
      "inputs": [
        {
          "internalType": "address",
          "name": "account",
          "type": "address"
        }
      ],
      "name": "isUser",
      "outputs": [
        {
          "internalType": "bool",
          "name": "",
          "type": "bool"
        }
      ],
      "stateMutability": "view",
      "type": "function"
    },
    {
      "inputs": [
        {
          "internalType": "address",
          "name": "account",
          "type": "address"
        }
      ],
      "name": "checkBalance",
      "outputs": [
        {
          "internalType": "uint256",
          "name": "",
          "type": "uint256"
        }
      ],
      "stateMutability": "view",
      "type": "function"
    },
    {
      "inputs": [
        {
          "internalType": "address[]",
          "name": "accounts",
          "type": "address[]"
        },
        {
          "internalType": "uint256[]",
          "name": "amounts",
          "type": "uint256[]"
        }
      ],
      "name": "addManyUser",
      "outputs": [
        {
          "internalType": "bool",
          "name": "ok",
          "type": "bool"
        }
      ],
      "stateMutability": "nonpayable",
      "type": "function"
    },
    {
      "inputs": [
        {
          "internalType": "address",
          "name": "account",
          "type": "address"
        }
      ],
      "name": "removeUser",
      "outputs": [
        {
          "internalType": "bool",
          "name": "ok",
          "type": "bool"
        }
      ],
      "stateMutability": "nonpayable",
      "type": "function"
    }
  ],
  "bytecode": "0x60806040523480156200001157600080fd5b5060405162001fcf38038062001fcf8339818101604052810190620000379190620002a4565b620000576200004b6200016e60201b60201c565b6200017660201b60201c565b600073ffffffffffffffffffffffffffffffffffffffff168173ffffffffffffffffffffffffffffffffffffffff161415620000ca576040517f08c379a0000000000000000000000000000000000000000000000000000000008152600401620000c1906200035d565b60405180910390fd5b80600160006101000a81548173ffffffffffffffffffffffffffffffffffffffff021916908373ffffffffffffffffffffffffffffffffffffffff16021790555080600260006101000a81548173ffffffffffffffffffffffffffffffffffffffff021916908373ffffffffffffffffffffffffffffffffffffffff1602179055506000600360046101000a81548160ff021916908315150217905550506200037f565b600033905090565b60008060009054906101000a900473ffffffffffffffffffffffffffffffffffffffff169050816000806101000a81548173ffffffffffffffffffffffffffffffffffffffff021916908373ffffffffffffffffffffffffffffffffffffffff1602179055508173ffffffffffffffffffffffffffffffffffffffff168173ffffffffffffffffffffffffffffffffffffffff167f8be0079c531659141344cd1fd0a4f28419497f9722a3daafe3b4186f6b6457e060405160405180910390a35050565b600080fd5b600073ffffffffffffffffffffffffffffffffffffffff82169050919050565b60006200026c826200023f565b9050919050565b6200027e816200025f565b81146200028a57600080fd5b50565b6000815190506200029e8162000273565b92915050565b600060208284031215620002bd57620002bc6200023a565b5b6000620002cd848285016200028d565b91505092915050565b600082825260208201905092915050565b7f56657374696e673a20746f6b656e2061646472657373206d757374206e6f742060008201527f6265203000000000000000000000000000000000000000000000000000000000602082015250565b600062000345602483620002d6565b91506200035282620002e7565b604082019050919050565b60006020820190508181036000830152620003788162000336565b9050919050565b611c40806200038f6000396000f3fe608060405234801561001057600080fd5b50600436106100a95760003560e01c80639d577a61116100715780639d577a6114610166578063b78122e714610196578063c47cfca1146101c6578063ca628c78146101f7578063d301719314610215578063f2fde38b14610245576100a9565b80634209fff1146100ae5780635f515226146100de578063715018a61461010e5780638da5cb5b146101185780639857518814610136575b600080fd5b6100c860048036038101906100c39190611103565b610261565b6040516100d5919061114b565b60405180910390f35b6100f860048036038101906100f39190611103565b610336565b604051610105919061117f565b60405180910390f35b6101166103fe565b005b610120610486565b60405161012d91906111a9565b60405180910390f35b610150600480360381019061014b9190611103565b6104af565b60405161015d919061114b565b60405180910390f35b610180600480360381019061017b919061140c565b61061c565b60405161018d919061114b565b60405180910390f35b6101b060048036038101906101ab91906114c0565b6107a8565b6040516101bd919061114b565b60405180910390f35b6101e060048036038101906101db9190611103565b610973565b6040516101ee929190611527565b60405180910390f35b6101ff610a0d565b60405161020c919061114b565b60405180910390f35b61022f600480360381019061022a9190611550565b610b11565b60405161023c919061114b565b60405180910390f35b61025f600480360381019061025a9190611103565b610c7f565b005b600061026b610d77565b73ffffffffffffffffffffffffffffffffffffffff16610289610486565b73ffffffffffffffffffffffffffffffffffffffff16146102df576040517f08c379a00000000000000000000000000000000000000000000000000000000081526004016102d6906115ed565b60405180910390fd5b600460008373ffffffffffffffffffffffffffffffffffffffff1673ffffffffffffffffffffffffffffffffffffffff16815260200190815260200160002060000160009054906101000a900460ff169050919050565b6000610340610d77565b73ffffffffffffffffffffffffffffffffffffffff1661035e610486565b73ffffffffffffffffffffffffffffffffffffffff16146103b4576040517f08c379a00000000000000000000000000000000000000000000000000000000081526004016103ab906115ed565b60405180910390fd5b600460008373ffffffffffffffffffffffffffffffffffffffff1673ffffffffffffffffffffffffffffffffffffffff168152602001908152602001600020600101549050919050565b610406610d77565b73ffffffffffffffffffffffffffffffffffffffff16610424610486565b73ffffffffffffffffffffffffffffffffffffffff161461047a576040517f08c379a0000000000000000000000000000000000000000000000000000000008152600401610471906115ed565b60405180910390fd5b6104846000610d7f565b565b60008060009054906101000a900473ffffffffffffffffffffffffffffffffffffffff16905090565b60006104b9610d77565b73ffffffffffffffffffffffffffffffffffffffff166104d7610486565b73ffffffffffffffffffffffffffffffffffffffff161461052d576040517f08c379a0000000000000000000000000000000000000000000000000000000008152600401610524906115ed565b60405180910390fd5b6000600460008473ffffffffffffffffffffffffffffffffffffffff1673ffffffffffffffffffffffffffffffffffffffff16815260200190815260200160002060000160006101000a81548160ff0219169083151502179055506000600460008473ffffffffffffffffffffffffffffffffffffffff1673ffffffffffffffffffffffffffffffffffffffff168152602001908152602001600020600101819055508173ffffffffffffffffffffffffffffffffffffffff167f0ad8e54ac59bf2d8a7a1474c1af503b593553cf4fcaaffdef04ab5249f89762b60405160405180910390a260019050919050565b6000610626610d77565b73ffffffffffffffffffffffffffffffffffffffff16610644610486565b73ffffffffffffffffffffffffffffffffffffffff161461069a576040517f08c379a0000000000000000000000000000000000000000000000000000000008152600401610691906115ed565b60405180910390fd5b81518351146106a857600080fd5b600080600090505b8451811015610744578481815181106106cc576106cb61160d565b5b602002602001015191506001600460008473ffffffffffffffffffffffffffffffffffffffff1673ffffffffffffffffffffffffffffffffffffffff16815260200190815260200160002060000160006101000a81548160ff021916908315150217905550808061073c9061166b565b9150506106b0565b5082604051610753919061176c565b604051809103902084604051610769919061183b565b60405180910390207f95fd5e51587b9bcd55cbd5a53bf5bcc55def6d020a60b1c0484ce0d2e08805fe60405160405180910390a3600191505092915050565b6000808563ffffffff161180156107c5575060008463ffffffff16115b80156107d7575060008363ffffffff16115b80156107e9575060008263ffffffff16115b610828576040517f08c379a000000000000000000000000000000000000000000000000000000000815260040161081f9061189e565b60405180910390fd5b6000838561083691906118ed565b63ffffffff161461087c576040517f08c379a00000000000000000000000000000000000000000000000000000000081526004016108739061196a565b60405180910390fd5b84600260146101000a81548163ffffffff021916908363ffffffff16021790555083600260186101000a81548163ffffffff021916908363ffffffff160217905550826002601c6101000a81548163ffffffff021916908363ffffffff16021790555081600360006101000a81548163ffffffff021916908363ffffffff1602179055506001600360046101000a81548160ff0219169083151502179055508263ffffffff168463ffffffff168663ffffffff167fe94441c970dd7ce7c8cec5adab6530a3340f50ac9f98d3175fd8f8619e5720ad8560405161095f9190611999565b60405180910390a460019050949350505050565b60008061097e610d77565b73ffffffffffffffffffffffffffffffffffffffff1661099c610486565b73ffffffffffffffffffffffffffffffffffffffff16146109f2576040517f08c379a00000000000000000000000000000000000000000000000000000000081526004016109e9906115ed565b60405180910390fd5b6109fb83610e43565b610a0484610ea2565b91509150915091565b600080610a193361106e565b11610a2357600080fd5b6000600160009054906101000a900473ffffffffffffffffffffffffffffffffffffffff1673ffffffffffffffffffffffffffffffffffffffff1663a9059cbb33610a6d3361106e565b6040518363ffffffff1660e01b8152600401610a8a9291906119b4565b602060405180830381600087803b158015610aa457600080fd5b505af1158015610ab8573d6000803e3d6000fd5b505050506040513d601f19601f82011682018060405250810190610adc9190611a09565b90507ff2450ece42fe0df67344df6dadd71db5aadd17cf6b86aa669c7d53060b70a96760405160405180910390a18091505090565b6000610b1b610d77565b73ffffffffffffffffffffffffffffffffffffffff16610b39610486565b73ffffffffffffffffffffffffffffffffffffffff1614610b8f576040517f08c379a0000000000000000000000000000000000000000000000000000000008152600401610b86906115ed565b60405180910390fd5b6001600460008573ffffffffffffffffffffffffffffffffffffffff1673ffffffffffffffffffffffffffffffffffffffff16815260200190815260200160002060000160006101000a81548160ff02191690831515021790555081600460008573ffffffffffffffffffffffffffffffffffffffff1673ffffffffffffffffffffffffffffffffffffffff16815260200190815260200160002060010181905550818373ffffffffffffffffffffffffffffffffffffffff167f6932ac5f42401e77c40344f612fa5558d62470f6a92606e938a4743c566e6ce860405160405180910390a36001905092915050565b610c87610d77565b73ffffffffffffffffffffffffffffffffffffffff16610ca5610486565b73ffffffffffffffffffffffffffffffffffffffff1614610cfb576040517f08c379a0000000000000000000000000000000000000000000000000000000008152600401610cf2906115ed565b60405180910390fd5b600073ffffffffffffffffffffffffffffffffffffffff168173ffffffffffffffffffffffffffffffffffffffff161415610d6b576040517f08c379a0000000000000000000000000000000000000000000000000000000008152600401610d6290611aa8565b60405180910390fd5b610d7481610d7f565b50565b600033905090565b60008060009054906101000a900473ffffffffffffffffffffffffffffffffffffffff169050816000806101000a81548173ffffffffffffffffffffffffffffffffffffffff021916908373ffffffffffffffffffffffffffffffffffffffff1602179055508173ffffffffffffffffffffffffffffffffffffffff168173ffffffffffffffffffffffffffffffffffffffff167f8be0079c531659141344cd1fd0a4f28419497f9722a3daafe3b4186f6b6457e060405160405180910390a35050565b6000610e4e82610ea2565b600460008473ffffffffffffffffffffffffffffffffffffffff1673ffffffffffffffffffffffffffffffffffffffff16815260200190815260200160002060010154610e9b9190611ac8565b9050919050565b600080610ead611075565b90506000600460008573ffffffffffffffffffffffffffffffffffffffff1673ffffffffffffffffffffffffffffffffffffffff1681526020019081526020016000206040518060600160405290816000820160009054906101000a900460ff16151515158152602001600182015481526020016002820154815250509050600360049054906101000a900460ff161580610f825750600260189054906101000a900463ffffffff16600260149054906101000a900463ffffffff16610f739190611afc565b63ffffffff168263ffffffff16105b15610f9557806020015192505050611069565b600360009054906101000a900463ffffffff166002601c9054906101000a900463ffffffff16610fc59190611b36565b600260149054906101000a900463ffffffff16610fe29190611afc565b63ffffffff168263ffffffff1610610fff57600092505050611069565b6000600260149054906101000a900463ffffffff168361101f9190611b74565b905060006002601c9054906101000a900463ffffffff166002601c9054906101000a900463ffffffff16836110549190611ba8565b61105e9190611b36565b905050506000925050505b919050565b6000919050565b60006201518063ffffffff164261108c9190611bd9565b905090565b6000604051905090565b600080fd5b600080fd5b600073ffffffffffffffffffffffffffffffffffffffff82169050919050565b60006110d0826110a5565b9050919050565b6110e0816110c5565b81146110eb57600080fd5b50565b6000813590506110fd816110d7565b92915050565b6000602082840312156111195761111861109b565b5b6000611127848285016110ee565b91505092915050565b60008115159050919050565b61114581611130565b82525050565b6000602082019050611160600083018461113c565b92915050565b6000819050919050565b61117981611166565b82525050565b60006020820190506111946000830184611170565b92915050565b6111a3816110c5565b82525050565b60006020820190506111be600083018461119a565b92915050565b600080fd5b6000601f19601f8301169050919050565b7f4e487b7100000000000000000000000000000000000000000000000000000000600052604160045260246000fd5b611212826111c9565b810181811067ffffffffffffffff82111715611231576112306111da565b5b80604052505050565b6000611244611091565b90506112508282611209565b919050565b600067ffffffffffffffff8211156112705761126f6111da565b5b602082029050602081019050919050565b600080fd5b600061129961129484611255565b61123a565b905080838252602082019050602084028301858111156112bc576112bb611281565b5b835b818110156112e557806112d188826110ee565b8452602084019350506020810190506112be565b5050509392505050565b600082601f830112611304576113036111c4565b5b8135611314848260208601611286565b91505092915050565b600067ffffffffffffffff821115611338576113376111da565b5b602082029050602081019050919050565b61135281611166565b811461135d57600080fd5b50565b60008135905061136f81611349565b92915050565b60006113886113838461131d565b61123a565b905080838252602082019050602084028301858111156113ab576113aa611281565b5b835b818110156113d457806113c08882611360565b8452602084019350506020810190506113ad565b5050509392505050565b600082601f8301126113f3576113f26111c4565b5b8135611403848260208601611375565b91505092915050565b600080604083850312156114235761142261109b565b5b600083013567ffffffffffffffff811115611441576114406110a0565b5b61144d858286016112ef565b925050602083013567ffffffffffffffff81111561146e5761146d6110a0565b5b61147a858286016113de565b9150509250929050565b600063ffffffff82169050919050565b61149d81611484565b81146114a857600080fd5b50565b6000813590506114ba81611494565b92915050565b600080600080608085870312156114da576114d961109b565b5b60006114e8878288016114ab565b94505060206114f9878288016114ab565b935050604061150a878288016114ab565b925050606061151b878288016114ab565b91505092959194509250565b600060408201905061153c6000830185611170565b6115496020830184611170565b9392505050565b600080604083850312156115675761156661109b565b5b6000611575858286016110ee565b925050602061158685828601611360565b9150509250929050565b600082825260208201905092915050565b7f4f776e61626c653a2063616c6c6572206973206e6f7420746865206f776e6572600082015250565b60006115d7602083611590565b91506115e2826115a1565b602082019050919050565b60006020820190508181036000830152611606816115ca565b9050919050565b7f4e487b7100000000000000000000000000000000000000000000000000000000600052603260045260246000fd5b7f4e487b7100000000000000000000000000000000000000000000000000000000600052601160045260246000fd5b600061167682611166565b91507fffffffffffffffffffffffffffffffffffffffffffffffffffffffffffffffff8214156116a9576116a861163c565b5b600182019050919050565b600081519050919050565b600081905092915050565b6000819050602082019050919050565b6116e381611166565b82525050565b60006116f583836116da565b60208301905092915050565b6000602082019050919050565b6000611719826116b4565b61172381856116bf565b935061172e836116ca565b8060005b8381101561175f57815161174688826116e9565b975061175183611701565b925050600181019050611732565b5085935050505092915050565b6000611778828461170e565b915081905092915050565b600081519050919050565b600081905092915050565b6000819050602082019050919050565b6117b2816110c5565b82525050565b60006117c483836117a9565b60208301905092915050565b6000602082019050919050565b60006117e882611783565b6117f2818561178e565b93506117fd83611799565b8060005b8381101561182e57815161181588826117b8565b9750611820836117d0565b925050600181019050611801565b5085935050505092915050565b600061184782846117dd565b915081905092915050565b7f496e76616c696420696e70757421000000000000000000000000000000000000600082015250565b6000611888600e83611590565b915061189382611852565b602082019050919050565b600060208201905081810360008301526118b78161187b565b9050919050565b7f4e487b7100000000000000000000000000000000000000000000000000000000600052601260045260246000fd5b60006118f882611484565b915061190383611484565b925082611913576119126118be565b5b828206905092915050565b7f496e76616c696420636c69666620706572696f64000000000000000000000000600082015250565b6000611954601483611590565b915061195f8261191e565b602082019050919050565b6000602082019050818103600083015261198381611947565b9050919050565b61199381611484565b82525050565b60006020820190506119ae600083018461198a565b92915050565b60006040820190506119c9600083018561119a565b6119d66020830184611170565b9392505050565b6119e681611130565b81146119f157600080fd5b50565b600081519050611a03816119dd565b92915050565b600060208284031215611a1f57611a1e61109b565b5b6000611a2d848285016119f4565b91505092915050565b7f4f776e61626c653a206e6577206f776e657220697320746865207a65726f206160008201527f6464726573730000000000000000000000000000000000000000000000000000602082015250565b6000611a92602683611590565b9150611a9d82611a36565b604082019050919050565b60006020820190508181036000830152611ac181611a85565b9050919050565b6000611ad382611166565b9150611ade83611166565b925082821015611af157611af061163c565b5b828203905092915050565b6000611b0782611484565b9150611b1283611484565b92508263ffffffff03821115611b2b57611b2a61163c565b5b828201905092915050565b6000611b4182611484565b9150611b4c83611484565b92508163ffffffff0483118215151615611b6957611b6861163c565b5b828202905092915050565b6000611b7f82611484565b9150611b8a83611484565b925082821015611b9d57611b9c61163c565b5b828203905092915050565b6000611bb382611484565b9150611bbe83611484565b925082611bce57611bcd6118be565b5b828204905092915050565b6000611be482611166565b9150611bef83611166565b925082611bff57611bfe6118be565b5b82820490509291505056fea2646970667358221220ff3189a87113a9736ab19b3dea943a5b21c4c4140c39f5064f3d93a7cc6806db64736f6c63430008090033",
  "immutableReferences": {},
  "source": "// SPDX-License-Identifier: MIT\r\npragma solidity ^0.8.9;\r\n\r\nimport \"./Token.sol\";\r\nimport \"@openzeppelin/contracts/token/ERC20/utils/SafeERC20.sol\";\r\nimport \"@openzeppelin/contracts/access/Ownable.sol\";\r\n\r\ncontract Vesting is Ownable {\r\n    using SafeERC20 for IERC20;\r\n\r\n    IERC20 private _token;\r\n    address tokenAddress;\r\n\r\n    uint32 private constant SECONDS_PER_DAY = 24 * 60 * 60; \r\n    //mapping(address => bool)private isUser;\r\n\r\n    uint32 private _startDate;\r\n    uint32 private _cliffPeriod; /* Duration of the cliff, with respect to the grant start day, in days. */\r\n    uint32 private _interval; /* Duration in days of the vesting interval. */\r\n    uint32 private _milestones;\r\n    bool private _isSetSchedule;\r\n\r\n\r\n    struct User {\r\n        bool isUser;\r\n        uint256 amount;\r\n        uint256 amountClaimed;\r\n        //bool hasSchedule;\r\n    }\r\n    mapping(address => User) private _users;\r\n    //mapping(address => vestingSchedule) private _vestingSchedules;\r\n\r\n    event AddUser(address indexed account, uint256 indexed amount);\r\n    event AddManyUser(address[] indexed accounts, uint256[] indexed amounts);\r\n    event RemoveUser(address indexed account);\r\n\r\n\r\n\r\n    constructor(address token) {\r\n        require(token != address(0), \"Vesting: token address must not be 0\");\r\n        _token = IERC20(token);\r\n        tokenAddress = token; // fix later\r\n        _isSetSchedule=false;\r\n    }\r\n\r\n    modifier onlyUser() {\r\n        //  require(); /* */\r\n        _;\r\n    }\r\n\r\n    event SetVestingSchedule(        \r\n        uint32 indexed startDate,\r\n        uint32 indexed cliffPeriod,\r\n        uint32 indexed interval,\r\n        uint32 milestones\r\n    );\r\n\r\n    function setVestingSchedule(\r\n        uint32 startDate,\r\n        uint32 cliffPeriod,\r\n        uint32 interval,\r\n        uint32 milestones\r\n    ) public returns (bool ok) {\r\n        require(\r\n            startDate > 0 && cliffPeriod > 0 && interval > 0 && milestones > 0,\r\n            \"Invalid input!\"\r\n        );\r\n        require(cliffPeriod % interval == 0, \"Invalid cliff period\");\r\n\r\n        _startDate=startDate;\r\n        _cliffPeriod=cliffPeriod;\r\n        _interval=interval;\r\n        _milestones=milestones;\r\n        _isSetSchedule=true;\r\n\r\n        emit SetVestingSchedule(          \r\n            startDate,\r\n            cliffPeriod,\r\n            interval,\r\n            milestones\r\n        );\r\n        return true;\r\n    }\r\n\r\n    event WithdrawToken();\r\n\r\n    function withdrawToken() public onlyUser returns(bool ok) {\r\n        require(_tokenCanWithdraw(msg.sender) > 0);\r\n\r\n        bool txn = _token.transfer(msg.sender,_tokenCanWithdraw(msg.sender));\r\n\r\n        emit WithdrawToken();\r\n\r\n        return txn;\r\n\r\n    }\r\n\r\n    function vestingOf(address account) public view onlyUser onlyOwner returns (uint256 claim,uint256 remain) {\r\n        return (_tokenClaimed(account),_tokenRemained(account));\r\n    }\r\n\r\n///// Calculating section\r\n\r\n    function _today() private view returns (uint32 dayNumber) {\r\n        return uint32(block.timestamp / SECONDS_PER_DAY);\r\n    }\r\n\r\n\r\n    function _tokenRemained(address account) private view returns (uint256){\r\n\r\n        uint32 onday = _today();\r\n        User memory user = _users[account];\r\n\r\n\r\n        //if user has no schedule or before cliff, then full\r\n        if(!_isSetSchedule || onday < _startDate + _cliffPeriod){\r\n            return user.amount;\r\n        }\r\n        //if after end of vesting, return total - amountClaimed\r\n        else if(onday >= _startDate + _interval * _milestones){\r\n            return uint256(0);\r\n        }\r\n        // otherwise, calcute\r\n        else{\r\n            uint32 daysVested = onday - _startDate;\r\n            uint32 effectiveDaysVested = (daysVested / _interval) * _interval;\r\n\r\n           // uint256 vested = user.amount * effectiveDaysVested / // not done yet\r\n        }\r\n      //  return (user.amount - effectiveDaysVested);  //hi t but fix later\r\n        return uint256(0);\r\n    }\r\n    function _tokenClaimed(address account) private view returns(uint256){\r\n        \r\n        //User memory user = _users[account];\r\n\r\n        return (_users[account].amount - _tokenRemained(account));\r\n\r\n    }\r\n\r\n    function _tokenCanWithdraw(address account) private view returns(uint256){\r\n        return uint256(0);\r\n    }\r\n\r\n\r\n    \r\n    ///////// User Handle\r\n\r\n    function addUser(address account, uint256 amount)\r\n        public\r\n        onlyOwner\r\n        returns (bool ok)\r\n    {\r\n        _users[account].isUser = true;\r\n        _users[account].amount = amount;\r\n        emit AddUser(account, amount);\r\n        return true;\r\n    }\r\n\r\n    function isUser(address account) public view onlyOwner returns (bool) {\r\n        return _users[account].isUser;\r\n    }\r\n\r\n    function checkBalance(address account)\r\n        public\r\n        view\r\n        onlyOwner\r\n        returns (uint256)\r\n    {\r\n        return _users[account].amount;\r\n    }\r\n\r\n    // function checkSchedule(address account)public view onlyOwner returns (bool) {\r\n    //     return _users[account].hasSchedule;\r\n    // } \r\n\r\n\r\n    function addManyUser(address[] memory accounts, uint256[] memory amounts)\r\n        public\r\n        onlyOwner\r\n        returns (bool ok)\r\n    {\r\n        require(accounts.length == amounts.length);\r\n\r\n        address account;\r\n        for (uint256 index = 0; index < accounts.length; index++) {\r\n            account = accounts[index];\r\n\r\n            _users[account].isUser = true;\r\n            //_users[account].amount = amounts[index];\r\n        }\r\n        emit AddManyUser(accounts, amounts);\r\n        return true;\r\n    }\r\n\r\n    function removeUser(address account) public onlyOwner returns (bool ok) {\r\n        //require(); /* trc ngy bt u vesting contract */\r\n\r\n        _users[account].isUser = false;\r\n        _users[account].amount = 0;\r\n        emit RemoveUser(account);\r\n        return true;\r\n    }\r\n}\r\n",
  "sourcePath": "C:\\Users\\huyvi\\OneDrive\\My tnh\\Blockchain\\vesting_team\\vesting-tts\\vesting-tts\\contracts\\Vesting.sol",
  "compiler": {
    "name": "solc",
    "version": "0.8.9+commit.e5eed63a.Emscripten.clang"
  },
  "schemaVersion": "3.4.6",
  "updatedAt": "2022-03-18T10:32:25.940Z",
  "devdoc": {
    "kind": "dev",
    "methods": {
      "owner()": {
        "details": "Returns the address of the current owner."
      },
      "renounceOwnership()": {
        "details": "Leaves the contract without owner. It will not be possible to call `onlyOwner` functions anymore. Can only be called by the current owner. NOTE: Renouncing ownership will leave the contract without an owner, thereby removing any functionality that is only available to the owner."
      },
      "transferOwnership(address)": {
        "details": "Transfers ownership of the contract to a new account (`newOwner`). Can only be called by the current owner."
      }
    },
    "version": 1
  },
  "userdoc": {
    "kind": "user",
    "methods": {},
    "version": 1
  }
}